{
  "_format": "hh-sol-artifact-1",
  "contractName": "RPS",
  "sourceName": "contracts/RPS.sol",
  "abi": [
    {
      "inputs": [],
      "stateMutability": "nonpayable",
      "type": "constructor"
    },
    {
      "anonymous": false,
      "inputs": [
        {
          "indexed": false,
          "internalType": "bytes32",
          "name": "gameId",
          "type": "bytes32"
        }
      ],
      "name": "gameCancel",
      "type": "event"
    },
    {
      "anonymous": false,
      "inputs": [
        {
          "indexed": false,
          "internalType": "bytes32",
          "name": "gameId",
          "type": "bytes32"
        }
      ],
      "name": "requestMoves",
      "type": "event"
    },
    {
      "anonymous": false,
      "inputs": [
        {
          "indexed": false,
          "internalType": "bytes32",
          "name": "gameId",
          "type": "bytes32"
        },
        {
          "indexed": false,
          "internalType": "address",
          "name": "winner",
          "type": "address"
        }
      ],
      "name": "winner",
      "type": "event"
    },
    {
      "inputs": [
        {
          "internalType": "bytes32",
          "name": "",
          "type": "bytes32"
        }
      ],
      "name": "games",
      "outputs": [
        {
          "internalType": "address payable",
          "name": "player1",
          "type": "address"
        },
        {
          "internalType": "address payable",
          "name": "player2",
          "type": "address"
        },
        {
          "internalType": "string",
          "name": "player1Name",
          "type": "string"
        },
        {
          "internalType": "string",
          "name": "player2Name",
          "type": "string"
        },
        {
          "internalType": "uint256",
          "name": "bet",
          "type": "uint256"
        },
        {
          "internalType": "bytes32",
          "name": "p1Commit",
          "type": "bytes32"
        },
        {
          "internalType": "bytes32",
          "name": "p2Commit",
          "type": "bytes32"
        },
        {
          "internalType": "uint8",
          "name": "p1Choice",
          "type": "uint8"
        },
        {
          "internalType": "uint8",
          "name": "p2Choice",
          "type": "uint8"
        },
        {
          "internalType": "address",
          "name": "winner",
          "type": "address"
        },
        {
          "internalType": "uint8",
          "name": "gameState",
          "type": "uint8"
        }
      ],
      "stateMutability": "view",
      "type": "function"
    },
    {
      "inputs": [
        {
          "internalType": "bytes32",
          "name": "_id",
          "type": "bytes32"
        }
      ],
      "name": "getGameDetails",
      "outputs": [
        {
          "components": [
            {
              "internalType": "address payable",
              "name": "player1",
              "type": "address"
            },
            {
              "internalType": "address payable",
              "name": "player2",
              "type": "address"
            },
            {
              "internalType": "string",
              "name": "player1Name",
              "type": "string"
            },
            {
              "internalType": "string",
              "name": "player2Name",
              "type": "string"
            },
            {
              "internalType": "uint256",
              "name": "bet",
              "type": "uint256"
            },
            {
              "internalType": "bytes32",
              "name": "p1Commit",
              "type": "bytes32"
            },
            {
              "internalType": "bytes32",
              "name": "p2Commit",
              "type": "bytes32"
            },
            {
              "internalType": "uint8",
              "name": "p1Choice",
              "type": "uint8"
            },
            {
              "internalType": "uint8",
              "name": "p2Choice",
              "type": "uint8"
            },
            {
              "internalType": "address",
              "name": "winner",
              "type": "address"
            },
            {
              "internalType": "uint8",
              "name": "gameState",
              "type": "uint8"
            }
          ],
          "internalType": "struct RPS.Game",
          "name": "",
          "type": "tuple"
        }
      ],
      "stateMutability": "view",
      "type": "function"
    },
    {
      "inputs": [
        {
          "internalType": "address",
          "name": "_player",
          "type": "address"
        }
      ],
      "name": "getPlayerDetails",
      "outputs": [
        {
          "internalType": "uint256",
          "name": "",
          "type": "uint256"
        },
        {
          "internalType": "uint256",
          "name": "",
          "type": "uint256"
        },
        {
          "internalType": "int256",
          "name": "",
          "type": "int256"
        }
      ],
      "stateMutability": "view",
      "type": "function"
    },
    {
      "inputs": [
        {
          "internalType": "address",
          "name": "",
          "type": "address"
        }
      ],
      "name": "players",
      "outputs": [
        {
          "internalType": "bool",
          "name": "initialized",
          "type": "bool"
        },
        {
          "internalType": "uint256",
          "name": "wins",
          "type": "uint256"
        },
        {
          "internalType": "uint256",
          "name": "losses",
          "type": "uint256"
        },
        {
          "internalType": "int256",
          "name": "winnings",
          "type": "int256"
        }
      ],
      "stateMutability": "view",
      "type": "function"
    },
    {
      "inputs": [
        {
          "internalType": "bytes32",
          "name": "_id",
          "type": "bytes32"
        }
      ],
      "name": "requestRefund",
      "outputs": [],
      "stateMutability": "nonpayable",
      "type": "function"
    },
    {
      "inputs": [
        {
          "internalType": "bytes32",
          "name": "_id",
          "type": "bytes32"
        },
        {
          "internalType": "bytes32",
          "name": "_commit",
          "type": "bytes32"
        },
        {
          "internalType": "string",
          "name": "_playerName",
          "type": "string"
        }
      ],
      "name": "sendCommitment",
      "outputs": [],
      "stateMutability": "payable",
      "type": "function"
    },
    {
      "inputs": [
        {
          "internalType": "bytes32",
          "name": "_id",
          "type": "bytes32"
        },
        {
          "internalType": "uint8",
          "name": "_choice",
          "type": "uint8"
        },
        {
          "internalType": "uint256",
          "name": "_nonce",
          "type": "uint256"
        }
      ],
      "name": "sendVerification",
      "outputs": [],
      "stateMutability": "nonpayable",
      "type": "function"
    }
  ],
  "bytecode": "0x6080604052600060025560006003553480156200001b57600080fd5b50620000676040518060400160405280600d81526020017f4465706c6f79696e6720525053000000000000000000000000000000000000008152506200006d60201b620016661760201c565b62000201565b6200010d816040516024016200008491906200017a565b6040516020818303038152906040527f41304fac000000000000000000000000000000000000000000000000000000007bffffffffffffffffffffffffffffffffffffffffffffffffffffffff19166020820180517bffffffffffffffffffffffffffffffffffffffffffffffffffffffff83818316178352505050506200011060201b60201c565b50565b60008151905060006a636f6e736f6c652e6c6f679050602083016000808483855afa5050505050565b600062000146826200019e565b620001528185620001a9565b935062000164818560208601620001ba565b6200016f81620001f0565b840191505092915050565b6000602082019050818103600083015262000196818462000139565b905092915050565b600081519050919050565b600082825260208201905092915050565b60005b83811015620001da578082015181840152602081019050620001bd565b83811115620001ea576000848401525b50505050565b6000601f19601f8301169050919050565b6133e280620002116000396000f3fe6080604052600436106100705760003560e01c8063b7cfcdca1161004e578063b7cfcdca14610104578063c8dd6ce714610120578063e2eb41ff1461015f578063f579f8821461019f57610070565b80632626f02514610075578063775274a11461009e5780638a1fa029146100c7575b600080fd5b34801561008157600080fd5b5061009c60048036038101906100979190612426565b6101e6565b005b3480156100aa57600080fd5b506100c560048036038101906100c09190612391565b6106a9565b005b3480156100d357600080fd5b506100ee60048036038101906100e99190612391565b610c1e565b6040516100fb9190612c31565b60405180910390f35b61011e600480360381019061011991906123ba565b610f51565b005b34801561012c57600080fd5b5061014760048036038101906101429190612368565b6112d2565b60405161015693929190612c53565b60405180910390f35b34801561016b57600080fd5b5061018660048036038101906101819190612368565b611438565b60405161019694939291906129c6565b60405180910390f35b3480156101ab57600080fd5b506101c660048036038101906101c19190612391565b611475565b6040516101dd9b9a9998979695949392919061290d565b60405180910390f35b60026001600085815260200190815260200160002060070160169054906101000a900460ff1660ff161461024f576040517f08c379a000000000000000000000000000000000000000000000000000000000815260040161024690612ab1565b60405180910390fd5b6001600084815260200190815260200160002060000160009054906101000a900473ffffffffffffffffffffffffffffffffffffffff1673ffffffffffffffffffffffffffffffffffffffff163373ffffffffffffffffffffffffffffffffffffffff16148061032057506001600084815260200190815260200160002060010160009054906101000a900473ffffffffffffffffffffffffffffffffffffffff1673ffffffffffffffffffffffffffffffffffffffff163373ffffffffffffffffffffffffffffffffffffffff16145b61035f576040517f08c379a000000000000000000000000000000000000000000000000000000000815260040161035690612bb1565b60405180910390fd5b6001600084815260200190815260200160002060000160009054906101000a900473ffffffffffffffffffffffffffffffffffffffff1673ffffffffffffffffffffffffffffffffffffffff163373ffffffffffffffffffffffffffffffffffffffff1614156104e65760006001600085815260200190815260200160002060070160009054906101000a900460ff1660ff1614610432576040517f08c379a000000000000000000000000000000000000000000000000000000000815260040161042990612a71565b60405180910390fd5b6001600084815260200190815260200160002060050154818360405160200161045c9291906128e1565b60405160208183030381529060405280519060200120146104b2576040517f08c379a00000000000000000000000000000000000000000000000000000000081526004016104a990612af1565b60405180910390fd5b816001600085815260200190815260200160002060070160006101000a81548160ff021916908360ff1602179055506105ff565b60006001600085815260200190815260200160002060070160019054906101000a900460ff1660ff161461054f576040517f08c379a000000000000000000000000000000000000000000000000000000000815260040161054690612a71565b60405180910390fd5b600160008481526020019081526020016000206006015481836040516020016105799291906128e1565b60405160208183030381529060405280519060200120146105cf576040517f08c379a00000000000000000000000000000000000000000000000000000000081526004016105c690612bd1565b60405180910390fd5b816001600085815260200190815260200160002060070160016101000a81548160ff021916908360ff1602179055505b60006001600085815260200190815260200160002060070160009054906101000a900460ff1660ff161415801561065d575060006001600085815260200190815260200160002060070160019054906101000a900460ff1660ff1614155b156106a4577f42692e7ea128eeade7db883116c3013522593012b8018de4359f11cd7b8026f68361068d856116ff565b60405161069b929190612a26565b60405180910390a15b505050565b600180600083815260200190815260200160002060070160169054906101000a900460ff1660ff161480610703575060026001600083815260200190815260200160002060070160169054906101000a900460ff1660ff16145b610742576040517f08c379a000000000000000000000000000000000000000000000000000000000815260040161073990612a91565b60405180910390fd5b3373ffffffffffffffffffffffffffffffffffffffff166001600083815260200190815260200160002060000160009054906101000a900473ffffffffffffffffffffffffffffffffffffffff1673ffffffffffffffffffffffffffffffffffffffff16148061081357503373ffffffffffffffffffffffffffffffffffffffff166001600083815260200190815260200160002060010160009054906101000a900473ffffffffffffffffffffffffffffffffffffffff1673ffffffffffffffffffffffffffffffffffffffff16145b610852576040517f08c379a000000000000000000000000000000000000000000000000000000000815260040161084990612c11565b60405180910390fd5b6000600160008381526020019081526020016000206004015490507f1bdc3dc79ecf2b2e1e2c50646c0b4f552303c5fd8a889b6b1114e7b0b3a200148260405161089c9190612a0b565b60405180910390a160008114156108e35760046001600084815260200190815260200160002060070160166101000a81548160ff021916908360ff16021790555050610c1b565b600180600084815260200190815260200160002060070160169054906101000a900460ff1660ff161415610a295760046001600084815260200190815260200160002060070160166101000a81548160ff021916908360ff16021790555060006001600084815260200190815260200160002060000160009054906101000a900473ffffffffffffffffffffffffffffffffffffffff1673ffffffffffffffffffffffffffffffffffffffff168260405161099d906128cc565b60006040518083038185875af1925050503d80600081146109da576040519150601f19603f3d011682016040523d82523d6000602084013e6109df565b606091505b5050905080610a23576040517f08c379a0000000000000000000000000000000000000000000000000000000008152600401610a1a90612ad1565b60405180910390fd5b50610c19565b60026001600084815260200190815260200160002060070160169054906101000a900460ff1660ff161415610c185760046001600084815260200190815260200160002060070160166101000a81548160ff021916908360ff16021790555060006001600084815260200190815260200160002060000160009054906101000a900473ffffffffffffffffffffffffffffffffffffffff1673ffffffffffffffffffffffffffffffffffffffff1682604051610ae4906128cc565b60006040518083038185875af1925050503d8060008114610b21576040519150601f19603f3d011682016040523d82523d6000602084013e610b26565b606091505b5050905060006001600085815260200190815260200160002060010160009054906101000a900473ffffffffffffffffffffffffffffffffffffffff1673ffffffffffffffffffffffffffffffffffffffff1683604051610b86906128cc565b60006040518083038185875af1925050503d8060008114610bc3576040519150601f19603f3d011682016040523d82523d6000602084013e610bc8565b606091505b50509050818015610bd65750805b610c15576040517f08c379a0000000000000000000000000000000000000000000000000000000008152600401610c0c90612ad1565b60405180910390fd5b50505b5b505b50565b610c266120f6565b60006001600084815260200190815260200160002060070160169054906101000a900460ff1660ff161415610c90576040517f08c379a0000000000000000000000000000000000000000000000000000000008152600401610c8790612b51565b60405180910390fd5b60016000838152602001908152602001600020604051806101600160405290816000820160009054906101000a900473ffffffffffffffffffffffffffffffffffffffff1673ffffffffffffffffffffffffffffffffffffffff1673ffffffffffffffffffffffffffffffffffffffff1681526020016001820160009054906101000a900473ffffffffffffffffffffffffffffffffffffffff1673ffffffffffffffffffffffffffffffffffffffff1673ffffffffffffffffffffffffffffffffffffffff168152602001600282018054610d6b90612ef2565b80601f0160208091040260200160405190810160405280929190818152602001828054610d9790612ef2565b8015610de45780601f10610db957610100808354040283529160200191610de4565b820191906000526020600020905b815481529060010190602001808311610dc757829003601f168201915b50505050508152602001600382018054610dfd90612ef2565b80601f0160208091040260200160405190810160405280929190818152602001828054610e2990612ef2565b8015610e765780601f10610e4b57610100808354040283529160200191610e76565b820191906000526020600020905b815481529060010190602001808311610e5957829003601f168201915b505050505081526020016004820154815260200160058201548152602001600682015481526020016007820160009054906101000a900460ff1660ff1660ff1681526020016007820160019054906101000a900460ff1660ff1660ff1681526020016007820160029054906101000a900473ffffffffffffffffffffffffffffffffffffffff1673ffffffffffffffffffffffffffffffffffffffff1673ffffffffffffffffffffffffffffffffffffffff1681526020016007820160169054906101000a900460ff1660ff1660ff16815250509050919050565b6000803373ffffffffffffffffffffffffffffffffffffffff1673ffffffffffffffffffffffffffffffffffffffff16815260200190815260200160002060000160009054906101000a900460ff16610fae57610fad33611d7f565b5b600180600086815260200190815260200160002060070160169054906101000a900460ff1660ff161115611017576040517f08c379a000000000000000000000000000000000000000000000000000000000815260040161100e90612b91565b60405180910390fd5b60006001600086815260200190815260200160002060070160169054906101000a900460ff1660ff1614156110a2576110533383833488611e28565b826001600086815260200190815260200160002060050181905550600180600086815260200190815260200160002060070160166101000a81548160ff021916908360ff1602179055506112cc565b600180600086815260200190815260200160002060070160169054906101000a900460ff1660ff1614156112cb573373ffffffffffffffffffffffffffffffffffffffff166001600086815260200190815260200160002060000160009054906101000a900473ffffffffffffffffffffffffffffffffffffffff1673ffffffffffffffffffffffffffffffffffffffff161415611175576040517f08c379a000000000000000000000000000000000000000000000000000000000815260040161116c90612b11565b60405180910390fd5b346001600086815260200190815260200160002060040154146111cd576040517f08c379a00000000000000000000000000000000000000000000000000000000081526004016111c490612bf1565b60405180910390fd5b336001600086815260200190815260200160002060010160006101000a81548173ffffffffffffffffffffffffffffffffffffffff021916908373ffffffffffffffffffffffffffffffffffffffff16021790555081816001600087815260200190815260200160002060030191906112479291906121a1565b5082600160008681526020019081526020016000206006018190555060026001600086815260200190815260200160002060070160166101000a81548160ff021916908360ff1602179055507f21980cf2ba5a8ad6ee12a16dea09c0470962f989af2ed3ffeed2e31761736ca9846040516112c29190612a0b565b60405180910390a15b5b50505050565b60008060008060008573ffffffffffffffffffffffffffffffffffffffff1673ffffffffffffffffffffffffffffffffffffffff16815260200190815260200160002060000160009054906101000a900460ff16611365576040517f08c379a000000000000000000000000000000000000000000000000000000000815260040161135c90612b71565b60405180910390fd5b6000808573ffffffffffffffffffffffffffffffffffffffff1673ffffffffffffffffffffffffffffffffffffffff168152602001908152602001600020600101546000808673ffffffffffffffffffffffffffffffffffffffff1673ffffffffffffffffffffffffffffffffffffffff168152602001908152602001600020600201546000808773ffffffffffffffffffffffffffffffffffffffff1673ffffffffffffffffffffffffffffffffffffffff168152602001908152602001600020600301549250925092509193909250565b60006020528060005260406000206000915090508060000160009054906101000a900460ff16908060010154908060020154908060030154905084565b60016020528060005260406000206000915090508060000160009054906101000a900473ffffffffffffffffffffffffffffffffffffffff16908060010160009054906101000a900473ffffffffffffffffffffffffffffffffffffffff16908060020180546114e490612ef2565b80601f016020809104026020016040519081016040528092919081815260200182805461151090612ef2565b801561155d5780601f106115325761010080835404028352916020019161155d565b820191906000526020600020905b81548152906001019060200180831161154057829003601f168201915b50505050509080600301805461157290612ef2565b80601f016020809104026020016040519081016040528092919081815260200182805461159e90612ef2565b80156115eb5780601f106115c0576101008083540402835291602001916115eb565b820191906000526020600020905b8154815290600101906020018083116115ce57829003601f168201915b5050505050908060040154908060050154908060060154908060070160009054906101000a900460ff16908060070160019054906101000a900460ff16908060070160029054906101000a900473ffffffffffffffffffffffffffffffffffffffff16908060070160169054906101000a900460ff1690508b565b6116fc8160405160240161167a9190612a4f565b6040516020818303038152906040527f41304fac000000000000000000000000000000000000000000000000000000007bffffffffffffffffffffffffffffffffffffffffffffffffffffffff19166020820180517bffffffffffffffffffffffffffffffffffffffffffffffffffffffff83818316178352505050506120cd565b50565b600060026001600084815260200190815260200160002060070160169054906101000a900460ff1660ff161461176a576040517f08c379a000000000000000000000000000000000000000000000000000000000815260040161176190612b31565b60405180910390fd5b60008060006001600086815260200190815260200160002060000160009054906101000a900473ffffffffffffffffffffffffffffffffffffffff16905060006001600087815260200190815260200160002060010160009054906101000a900473ffffffffffffffffffffffffffffffffffffffff16905060006001600088815260200190815260200160002060070160009054906101000a900460ff16905060006001600089815260200190815260200160002060070160019054906101000a900460ff169050600160ff168260ff1614801561184f5750600260ff168160ff16145b1561185f57829550839450611949565b600160ff168160ff1614801561187b5750600260ff168260ff16145b1561188b57839550829450611948565b600360ff168260ff161480156118a75750600260ff168160ff16145b156118b757839550829450611947565b600360ff168160ff161480156118d35750600260ff168260ff16145b156118e357829550839450611946565b600160ff168260ff161480156118ff5750600360ff168160ff16145b1561190f57839550829450611945565b600160ff168160ff1614801561192b5750600360ff168260ff16145b1561193b57829550839450611944565b60009550600094505b5b5b5b5b5b6003600160008a815260200190815260200160002060070160166101000a81548160ff021916908360ff16021790555085600160008a815260200190815260200160002060070160026101000a81548173ffffffffffffffffffffffffffffffffffffffff021916908373ffffffffffffffffffffffffffffffffffffffff1602179055506000600160008a8152602001908152602001600020600401549050600073ffffffffffffffffffffffffffffffffffffffff168773ffffffffffffffffffffffffffffffffffffffff161415611b4f5760008114611b4a5760008573ffffffffffffffffffffffffffffffffffffffff1682604051611a4c906128cc565b60006040518083038185875af1925050503d8060008114611a89576040519150601f19603f3d011682016040523d82523d6000602084013e611a8e565b606091505b5050905060008573ffffffffffffffffffffffffffffffffffffffff1683604051611ab8906128cc565b60006040518083038185875af1925050503d8060008114611af5576040519150601f19603f3d011682016040523d82523d6000602084013e611afa565b606091505b50509050818015611b085750805b611b47576040517f08c379a0000000000000000000000000000000000000000000000000000000008152600401611b3e90612ad1565b60405180910390fd5b50505b611d70565b60008114611c115760008773ffffffffffffffffffffffffffffffffffffffff16826002611b7d9190612d56565b604051611b89906128cc565b60006040518083038185875af1925050503d8060008114611bc6576040519150601f19603f3d011682016040523d82523d6000602084013e611bcb565b606091505b5050905080611c0f576040517f08c379a0000000000000000000000000000000000000000000000000000000008152600401611c0690612ad1565b60405180910390fd5b505b806000808973ffffffffffffffffffffffffffffffffffffffff1673ffffffffffffffffffffffffffffffffffffffff1681526020019081526020016000206003016000828254611c629190612cc2565b925050819055506000808873ffffffffffffffffffffffffffffffffffffffff1673ffffffffffffffffffffffffffffffffffffffff1681526020019081526020016000206001016000815480929190611cbb90612f24565b9190505550806000808873ffffffffffffffffffffffffffffffffffffffff1673ffffffffffffffffffffffffffffffffffffffff1681526020019081526020016000206003016000828254611d119190612db0565b925050819055506000808773ffffffffffffffffffffffffffffffffffffffff1673ffffffffffffffffffffffffffffffffffffffff1681526020019081526020016000206002016000815480929190611d6a90612f24565b91905055505b86975050505050505050919050565b6040518060800160405280600115158152602001600081526020016000815260200160008152506000808373ffffffffffffffffffffffffffffffffffffffff1673ffffffffffffffffffffffffffffffffffffffff16815260200190815260200160002060008201518160000160006101000a81548160ff02191690831515021790555060208201518160010155604082015181600201556060820151816003015590505050565b6040518061016001604052808673ffffffffffffffffffffffffffffffffffffffff168152602001600073ffffffffffffffffffffffffffffffffffffffff16815260200185858080601f016020809104026020016040519081016040528093929190818152602001838380828437600081840152601f19601f8201169050808301925050505050505081526020016040518060200160405280600081525081526020018381526020016000801b81526020016000801b8152602001600060ff168152602001600060ff168152602001600073ffffffffffffffffffffffffffffffffffffffff168152602001600060ff168152506001600083815260200190815260200160002060008201518160000160006101000a81548173ffffffffffffffffffffffffffffffffffffffff021916908373ffffffffffffffffffffffffffffffffffffffff16021790555060208201518160010160006101000a81548173ffffffffffffffffffffffffffffffffffffffff021916908373ffffffffffffffffffffffffffffffffffffffff1602179055506040820151816002019080519060200190611fda929190612227565b506060820151816003019080519060200190611ff7929190612227565b506080820151816004015560a0820151816005015560c0820151816006015560e08201518160070160006101000a81548160ff021916908360ff1602179055506101008201518160070160016101000a81548160ff021916908360ff1602179055506101208201518160070160026101000a81548173ffffffffffffffffffffffffffffffffffffffff021916908373ffffffffffffffffffffffffffffffffffffffff1602179055506101408201518160070160166101000a81548160ff021916908360ff1602179055509050505050505050565b60008151905060006a636f6e736f6c652e6c6f679050602083016000808483855afa5050505050565b604051806101600160405280600073ffffffffffffffffffffffffffffffffffffffff168152602001600073ffffffffffffffffffffffffffffffffffffffff1681526020016060815260200160608152602001600081526020016000801916815260200160008019168152602001600060ff168152602001600060ff168152602001600073ffffffffffffffffffffffffffffffffffffffff168152602001600060ff1681525090565b8280546121ad90612ef2565b90600052602060002090601f0160209004810192826121cf5760008555612216565b82601f106121e857803560ff1916838001178555612216565b82800160010185558215612216579182015b828111156122155782358255916020019190600101906121fa565b5b50905061222391906122ad565b5090565b82805461223390612ef2565b90600052602060002090601f016020900481019282612255576000855561229c565b82601f1061226e57805160ff191683800117855561229c565b8280016001018555821561229c579182015b8281111561229b578251825591602001919060010190612280565b5b5090506122a991906122ad565b5090565b5b808211156122c65760008160009055506001016122ae565b5090565b6000813590506122d981613350565b92915050565b6000813590506122ee81613367565b92915050565b60008083601f84011261230657600080fd5b8235905067ffffffffffffffff81111561231f57600080fd5b60208301915083600182028301111561233757600080fd5b9250929050565b60008135905061234d8161337e565b92915050565b60008135905061236281613395565b92915050565b60006020828403121561237a57600080fd5b6000612388848285016122ca565b91505092915050565b6000602082840312156123a357600080fd5b60006123b1848285016122df565b91505092915050565b600080600080606085870312156123d057600080fd5b60006123de878288016122df565b94505060206123ef878288016122df565b935050604085013567ffffffffffffffff81111561240c57600080fd5b612418878288016122f4565b925092505092959194509250565b60008060006060848603121561243b57600080fd5b6000612449868287016122df565b935050602061245a86828701612353565b925050604061246b8682870161233e565b9150509250925092565b61247e81612e56565b82525050565b61248d81612e56565b82525050565b61249c81612e44565b82525050565b6124ab81612e44565b82525050565b6124ba81612e68565b82525050565b6124c981612e74565b82525050565b6124d881612e74565b82525050565b6124e781612e7e565b82525050565b60006124f882612c8a565b6125028185612ca0565b9350612512818560208601612ebf565b61251b81612fe7565b840191505092915050565b600061253182612c8a565b61253b8185612cb1565b935061254b818560208601612ebf565b61255481612fe7565b840191505092915050565b600061256c602083612cb1565b915061257782613005565b602082019050919050565b600061258f602183612cb1565b915061259a8261302e565b604082019050919050565b60006125b2601f83612cb1565b91506125bd8261307d565b602082019050919050565b60006125d5601483612cb1565b91506125e0826130a6565b602082019050919050565b60006125f8602b83612cb1565b9150612603826130cf565b604082019050919050565b600061261b602e83612cb1565b91506126268261311e565b604082019050919050565b600061263e602583612cb1565b91506126498261316d565b604082019050919050565b6000612661601083612cb1565b915061266c826131bc565b602082019050919050565b6000612684601583612cb1565b915061268f826131e5565b602082019050919050565b60006126a7601c83612cb1565b91506126b28261320e565b602082019050919050565b60006126ca601b83612cb1565b91506126d582613237565b602082019050919050565b60006126ed602b83612cb1565b91506126f882613260565b604082019050919050565b6000612710600083612c95565b915061271b826132af565b600082019050919050565b6000612733603d83612cb1565b915061273e826132b2565b604082019050919050565b6000612756602383612cb1565b915061276182613301565b604082019050919050565b6000610160830160008301516127856000860182612475565b5060208301516127986020860182612475565b50604083015184820360408601526127b082826124ed565b915050606083015184820360608601526127ca82826124ed565b91505060808301516127df6080860182612862565b5060a08301516127f260a08601826124c0565b5060c083015161280560c08601826124c0565b5060e083015161281860e0860182612897565b5061010083015161282d610100860182612897565b50610120830151612842610120860182612493565b50610140830151612857610140860182612897565b508091505092915050565b61286b81612ea8565b82525050565b61287a81612ea8565b82525050565b61289161288c82612ea8565b612f6d565b82525050565b6128a081612eb2565b82525050565b6128af81612eb2565b82525050565b6128c66128c182612eb2565b612f77565b82525050565b60006128d782612703565b9150819050919050565b60006128ed8285612880565b6020820191506128fd82846128b5565b6001820191508190509392505050565b600061016082019050612923600083018e612484565b612930602083018d612484565b8181036040830152612942818c612526565b90508181036060830152612956818b612526565b9050612965608083018a612871565b61297260a08301896124cf565b61297f60c08301886124cf565b61298c60e08301876128a6565b61299a6101008301866128a6565b6129a86101208301856124a2565b6129b66101408301846128a6565b9c9b505050505050505050505050565b60006080820190506129db60008301876124b1565b6129e86020830186612871565b6129f56040830185612871565b612a0260608301846124de565b95945050505050565b6000602082019050612a2060008301846124cf565b92915050565b6000604082019050612a3b60008301856124cf565b612a4860208301846124a2565b9392505050565b60006020820190508181036000830152612a698184612526565b905092915050565b60006020820190508181036000830152612a8a8161255f565b9050919050565b60006020820190508181036000830152612aaa81612582565b9050919050565b60006020820190508181036000830152612aca816125a5565b9050919050565b60006020820190508181036000830152612aea816125c8565b9050919050565b60006020820190508181036000830152612b0a816125eb565b9050919050565b60006020820190508181036000830152612b2a8161260e565b9050919050565b60006020820190508181036000830152612b4a81612631565b9050919050565b60006020820190508181036000830152612b6a81612654565b9050919050565b60006020820190508181036000830152612b8a81612677565b9050919050565b60006020820190508181036000830152612baa8161269a565b9050919050565b60006020820190508181036000830152612bca816126bd565b9050919050565b60006020820190508181036000830152612bea816126e0565b9050919050565b60006020820190508181036000830152612c0a81612726565b9050919050565b60006020820190508181036000830152612c2a81612749565b9050919050565b60006020820190508181036000830152612c4b818461276c565b905092915050565b6000606082019050612c686000830186612871565b612c756020830185612871565b612c8260408301846124de565b949350505050565b600081519050919050565b600081905092915050565b600082825260208201905092915050565b600082825260208201905092915050565b6000612ccd82612e7e565b9150612cd883612e7e565b9250817f7fffffffffffffffffffffffffffffffffffffffffffffffffffffffffffffff03831360008312151615612d1357612d12612f89565b5b817f8000000000000000000000000000000000000000000000000000000000000000038312600083121615612d4b57612d4a612f89565b5b828201905092915050565b6000612d6182612ea8565b9150612d6c83612ea8565b9250817fffffffffffffffffffffffffffffffffffffffffffffffffffffffffffffffff0483118215151615612da557612da4612f89565b5b828202905092915050565b6000612dbb82612e7e565b9150612dc683612e7e565b9250827f800000000000000000000000000000000000000000000000000000000000000001821260008412151615612e0157612e00612f89565b5b827f7fffffffffffffffffffffffffffffffffffffffffffffffffffffffffffffff018213600084121615612e3957612e38612f89565b5b828203905092915050565b6000612e4f82612e88565b9050919050565b6000612e6182612e88565b9050919050565b60008115159050919050565b6000819050919050565b6000819050919050565b600073ffffffffffffffffffffffffffffffffffffffff82169050919050565b6000819050919050565b600060ff82169050919050565b60005b83811015612edd578082015181840152602081019050612ec2565b83811115612eec576000848401525b50505050565b60006002820490506001821680612f0a57607f821691505b60208210811415612f1e57612f1d612fb8565b5b50919050565b6000612f2f82612ea8565b91507fffffffffffffffffffffffffffffffffffffffffffffffffffffffffffffffff821415612f6257612f61612f89565b5b600182019050919050565b6000819050919050565b6000612f8282612ff8565b9050919050565b7f4e487b7100000000000000000000000000000000000000000000000000000000600052601160045260246000fd5b7f4e487b7100000000000000000000000000000000000000000000000000000000600052602260045260246000fd5b6000601f19601f8301169050919050565b60008160f81b9050919050565b7f506c617965722068617320616c7265616479206d61646520746865206d6f7665600082015250565b7f47616d65206973206e6f7420696e206120726566756e6461626c65207374617460008201527f6500000000000000000000000000000000000000000000000000000000000000602082015250565b7f47616d65206973206e6f7420726561647920746f2073656e64206d6f76657300600082015250565b7f4661696c656420746f2073656e64204574686572000000000000000000000000600082015250565b7f436f6d6d697420646f6573206e6f74206d61746368207768617420706c61796560008201527f72203120656e7465726564000000000000000000000000000000000000000000602082015250565b7f5468697320706c617965722068617320616c726561647920636f6d6d6974746560008201527f6420746f20746869732067616d65000000000000000000000000000000000000602082015250565b7f47616d65206973206e6f7420726561647920746f2064657465726d696e65207760008201527f696e6e6572000000000000000000000000000000000000000000000000000000602082015250565b7f47616d65206e6f74207374617274656400000000000000000000000000000000600082015250565b7f506c6179657220646f6573206e6f742065786973740000000000000000000000600082015250565b7f5468652067616d652068617320616c7265616479207374617274656400000000600082015250565b7f4f6e6c7920706c61796572732063616e206d616b65206d6f7665730000000000600082015250565b7f436f6d6d697420646f6573206e6f74206d61746368207768617420706c61796560008201527f72203220656e7465726564000000000000000000000000000000000000000000602082015250565b50565b7f5468652062657420616d6f756e74206973206e6f74207468652073616d65206160008201527f7320746865206f6e652062792074686520666972737420706c61796572000000602082015250565b7f506c61796572206973206e6f74206120706c6179657220696e2074686973206760008201527f616d650000000000000000000000000000000000000000000000000000000000602082015250565b61335981612e44565b811461336457600080fd5b50565b61337081612e74565b811461337b57600080fd5b50565b61338781612ea8565b811461339257600080fd5b50565b61339e81612eb2565b81146133a957600080fd5b5056fea2646970667358221220dc701d0f23d638cca961a88e0fb7146ad5fed9137ce62b1d49e58a0bf05cdcbe64736f6c63430008040033",
  "linkReferences": {},
  "deployedLinkReferences": {}
}